{
  "abi": [
    {
      "inputs": [],
      "name": "Sondage_count",
      "outputs": [
        {
          "internalType": "uint256",
          "name": "",
          "type": "uint256"
        }
      ],
      "stateMutability": "view",
      "type": "function"
    },
    {
      "inputs": [
        {
          "internalType": "address",
          "name": "_newGod",
          "type": "address"
        }
      ],
      "name": "changeGod2",
      "outputs": [],
      "stateMutability": "nonpayable",
      "type": "function"
    },
    {
      "inputs": [
        {
          "internalType": "string",
          "name": "_intitule",
          "type": "string"
        },
        {
          "internalType": "string",
          "name": "_option1",
          "type": "string"
        },
        {
          "internalType": "string",
          "name": "_option2",
          "type": "string"
        }
      ],
      "name": "creerSondage",
      "outputs": [],
      "stateMutability": "nonpayable",
      "type": "function"
    },
    {
      "inputs": [
        {
          "internalType": "uint256",
          "name": "_sondageId",
          "type": "uint256"
        }
      ],
      "name": "isFinished",
      "outputs": [
        {
          "internalType": "bool",
          "name": "",
          "type": "bool"
        }
      ],
      "stateMutability": "view",
      "type": "function"
    },
    {
      "inputs": [
        {
          "internalType": "uint256",
          "name": "_sondageId",
          "type": "uint256"
        }
      ],
      "name": "rouvrirSondage",
      "outputs": [],
      "stateMutability": "nonpayable",
      "type": "function"
    },
    {
      "inputs": [
        {
          "internalType": "uint256",
          "name": "_sondageId",
          "type": "uint256"
        }
      ],
      "name": "sondageInfo",
      "outputs": [
        {
          "internalType": "string",
          "name": "",
          "type": "string"
        },
        {
          "internalType": "string",
          "name": "",
          "type": "string"
        },
        {
          "internalType": "string",
          "name": "",
          "type": "string"
        }
      ],
      "stateMutability": "view",
      "type": "function"
    },
    {
      "inputs": [
        {
          "internalType": "uint256",
          "name": "_sondageId",
          "type": "uint256"
        }
      ],
      "name": "sondageResults",
      "outputs": [
        {
          "internalType": "uint256",
          "name": "votesOption1",
          "type": "uint256"
        },
        {
          "internalType": "uint256",
          "name": "votesOption2",
          "type": "uint256"
        }
      ],
      "stateMutability": "view",
      "type": "function"
    },
    {
      "inputs": [
        {
          "internalType": "uint256",
          "name": "_sondageId",
          "type": "uint256"
        }
      ],
      "name": "terminerSondage",
      "outputs": [],
      "stateMutability": "nonpayable",
      "type": "function"
    },
    {
      "inputs": [
        {
          "internalType": "uint256",
          "name": "_sondageId",
          "type": "uint256"
        },
        {
          "internalType": "uint256",
          "name": "_choix",
          "type": "uint256"
        }
      ],
      "name": "voter",
      "outputs": [],
      "stateMutability": "nonpayable",
      "type": "function"
    }
  ],
  "bytecode": {
    "object": "0x608060405260028054732bdc20f9377221032bcbfbcf9ea5bb8b4a2121656001600160a01b0319918216811790925560038054909116909117905534801561004657600080fd5b50610bfd806100566000396000f3fe608060405234801561001057600080fd5b50600436106100935760003560e01c80636c76af35116100665780636c76af351461010f5780636e7cd98e14610126578063ce895a1814610139578063d3856f3b1461014c578063e8ba65091461015f57600080fd5b806329cd06f3146100985780632d85780d146100ad578063344c1205146100c05780636c41cc93146100ed575b600080fd5b6100ab6100a63660046108af565b610182565b005b6100ab6100bb366004610937565b6101f3565b6100d36100ce366004610967565b610241565b604080519283526020830191909152015b60405180910390f35b6101006100fb366004610967565b61029a565b6040516100e4939291906109c6565b61011860015481565b6040519081526020016100e4565b6100ab610134366004610967565b610497565b6100ab610147366004610967565b61050c565b6100ab61015a366004610a09565b610584565b61017261016d366004610967565b6107c3565b60405190151581526020016100e4565b6001805490600061019283610a2b565b90915550506001546000908152602081905260409020806101b38582610adb565b50600181016101c28482610adb565b50600281016101d18382610adb565b506000600582018190556006820155600701805460ff19166001179055505050565b6002546001600160a01b031633148061021657506003546001600160a01b031633145b61021f57600080fd5b600380546001600160a01b0319166001600160a01b0392909216919091179055565b60008060008311801561025657506001548311155b61027b5760405162461bcd60e51b815260040161027290610b9b565b60405180910390fd5b5050600090815260208190526040902060058101546006909101549091565b60608060606000841180156102b157506001548411155b6102cd5760405162461bcd60e51b815260040161027290610b9b565b600084815260208190526040902080546001820190600283019083906102f290610a52565b80601f016020809104026020016040519081016040528092919081815260200182805461031e90610a52565b801561036b5780601f106103405761010080835404028352916020019161036b565b820191906000526020600020905b81548152906001019060200180831161034e57829003601f168201915b5050505050925081805461037e90610a52565b80601f01602080910402602001604051908101604052809291908181526020018280546103aa90610a52565b80156103f75780601f106103cc576101008083540402835291602001916103f7565b820191906000526020600020905b8154815290600101906020018083116103da57829003601f168201915b5050505050915080805461040a90610a52565b80601f016020809104026020016040519081016040528092919081815260200182805461043690610a52565b80156104835780601f1061045857610100808354040283529160200191610483565b820191906000526020600020905b81548152906001019060200180831161046657829003601f168201915b505050505090509250925092509193909250565b6002546001600160a01b03163314806104ba57506003546001600160a01b031633145b6104c357600080fd5b6000811180156104d557506001548111155b6104f15760405162461bcd60e51b815260040161027290610b9b565b6000908152602081905260409020600701805460ff19169055565b6002546001600160a01b031633148061052f57506003546001600160a01b031633145b61053857600080fd5b60008111801561054a57506001548111155b6105665760405162461bcd60e51b815260040161027290610b9b565b6000908152602081905260409020600701805460ff19166001179055565b60008211801561059657506001548211155b6105e25760405162461bcd60e51b815260206004820152601760248201527f4c6520736f6e64616765206e27657869737465207061730000000000000000006044820152606401610272565b60008281526020819052604090206007015460ff1661063c5760405162461bcd60e51b81526020600482015260166024820152754c6520736f6e6461676520657374207465726d696e6560501b6044820152606401610272565b60008281526020818152604080832033845260030190915290205460ff16156106b35760405162461bcd60e51b815260206004820152602360248201527f566f7573206176657a2064656a6120766f74652064616e7320636520736f6e6460448201526261676560e81b6064820152608401610272565b80600114806106c25750806002145b6106fe5760405162461bcd60e51b815260206004820152600d60248201526c566f746520696e76616c69646560981b6044820152606401610272565b8060010361074e57600082815260208190526040812060050180549161072383610a2b565b90915550506000828152602081815260408083203384526004019091529020805460ff191660011790555b8060010361079b57600082815260208190526040812060060180549161077383610a2b565b90915550506000828152602081815260408083203384526004019091529020805460ff191690555b506000908152602081815260408083203384526003019091529020805460ff19166001179055565b600080821180156107d657506001548211155b6107f25760405162461bcd60e51b815260040161027290610b9b565b5060009081526020819052604090206007015460ff161590565b634e487b7160e01b600052604160045260246000fd5b600082601f83011261083357600080fd5b813567ffffffffffffffff8082111561084e5761084e61080c565b604051601f8301601f19908116603f011681019082821181831017156108765761087661080c565b8160405283815286602085880101111561088f57600080fd5b836020870160208301376000602085830101528094505050505092915050565b6000806000606084860312156108c457600080fd5b833567ffffffffffffffff808211156108dc57600080fd5b6108e887838801610822565b945060208601359150808211156108fe57600080fd5b61090a87838801610822565b9350604086013591508082111561092057600080fd5b5061092d86828701610822565b9150509250925092565b60006020828403121561094957600080fd5b81356001600160a01b038116811461096057600080fd5b9392505050565b60006020828403121561097957600080fd5b5035919050565b6000815180845260005b818110156109a65760208185018101518683018201520161098a565b506000602082860101526020601f19601f83011685010191505092915050565b6060815260006109d96060830186610980565b82810360208401526109eb8186610980565b905082810360408401526109ff8185610980565b9695505050505050565b60008060408385031215610a1c57600080fd5b50508035926020909101359150565b600060018201610a4b57634e487b7160e01b600052601160045260246000fd5b5060010190565b600181811c90821680610a6657607f821691505b602082108103610a8657634e487b7160e01b600052602260045260246000fd5b50919050565b601f821115610ad657600081815260208120601f850160051c81016020861015610ab35750805b601f850160051c820191505b81811015610ad257828155600101610abf565b5050505b505050565b815167ffffffffffffffff811115610af557610af561080c565b610b0981610b038454610a52565b84610a8c565b602080601f831160018114610b3e5760008415610b265750858301515b600019600386901b1c1916600185901b178555610ad2565b600085815260208120601f198616915b82811015610b6d57888601518255948401946001909101908401610b4e565b5085821015610b8b5787850151600019600388901b60f8161c191681555b5050505050600190811b01905550565b60208082526012908201527114dbdb991859d9481a5b995e1a5cdd185b9d60721b60408201526060019056fea2646970667358221220813c6e14d5a3a2bc1a8c812bacbc457360d9c9d48bae6aab37fcbc915129a79364736f6c63430008150033",
    "linkReferences": {}
  },
  "methodIdentifiers": {
    "Sondage_count()": "6c76af35",
    "changeGod2(address)": "2d85780d",
    "creerSondage(string,string,string)": "29cd06f3",
    "isFinished(uint256)": "e8ba6509",
    "rouvrirSondage(uint256)": "ce895a18",
    "sondageInfo(uint256)": "6c41cc93",
    "sondageResults(uint256)": "344c1205",
    "terminerSondage(uint256)": "6e7cd98e",
    "voter(uint256,uint256)": "d3856f3b"
  },
  "id": 15
}