{
  "abi": [
    {
      "inputs": [],
      "name": "Sondage_count",
      "outputs": [
        {
          "internalType": "uint256",
          "name": "",
          "type": "uint256"
        }
      ],
      "stateMutability": "view",
      "type": "function"
    },
    {
      "inputs": [
        {
          "internalType": "address",
          "name": "_newGod",
          "type": "address"
        }
      ],
      "name": "changeGod2",
      "outputs": [],
      "stateMutability": "nonpayable",
      "type": "function"
    },
    {
      "inputs": [
        {
          "internalType": "string",
          "name": "_intitule",
          "type": "string"
        },
        {
          "internalType": "string",
          "name": "_option1",
          "type": "string"
        },
        {
          "internalType": "string",
          "name": "_option2",
          "type": "string"
        }
      ],
      "name": "creerSondage",
      "outputs": [],
      "stateMutability": "nonpayable",
      "type": "function"
    },
    {
      "inputs": [
        {
          "internalType": "uint256",
          "name": "_sondageId",
          "type": "uint256"
        }
      ],
      "name": "rouvrirSondage",
      "outputs": [],
      "stateMutability": "nonpayable",
      "type": "function"
    },
    {
      "inputs": [
        {
          "internalType": "uint256",
          "name": "_sondageId",
          "type": "uint256"
        }
      ],
      "name": "sondageInfo",
      "outputs": [
        {
          "internalType": "uint256",
          "name": "Sondaage_count",
          "type": "uint256"
        },
        {
          "internalType": "string",
          "name": "",
          "type": "string"
        },
        {
          "internalType": "string",
          "name": "",
          "type": "string"
        },
        {
          "internalType": "string",
          "name": "",
          "type": "string"
        },
        {
          "internalType": "uint256",
          "name": "votesOption1",
          "type": "uint256"
        },
        {
          "internalType": "uint256",
          "name": "votesOption2",
          "type": "uint256"
        },
        {
          "internalType": "bool",
          "name": "",
          "type": "bool"
        }
      ],
      "stateMutability": "view",
      "type": "function"
    },
    {
      "inputs": [
        {
          "internalType": "uint256",
          "name": "_sondageId",
          "type": "uint256"
        }
      ],
      "name": "terminerSondage",
      "outputs": [],
      "stateMutability": "nonpayable",
      "type": "function"
    },
    {
      "inputs": [
        {
          "internalType": "uint256",
          "name": "_sondageId",
          "type": "uint256"
        },
        {
          "internalType": "uint256",
          "name": "_choix",
          "type": "uint256"
        }
      ],
      "name": "voter",
      "outputs": [],
      "stateMutability": "nonpayable",
      "type": "function"
    }
  ],
  "bytecode": {
    "object": "0x608060405260028054732bdc20f9377221032bcbfbcf9ea5bb8b4a2121656001600160a01b0319918216811790925560038054909116909117905534801561004657600080fd5b50610b58806100566000396000f3fe608060405234801561001057600080fd5b506004361061007d5760003560e01c80636c76af351161005b5780636c76af35146100d95780636e7cd98e146100f0578063ce895a1814610103578063d3856f3b1461011657600080fd5b806329cd06f3146100825780632d85780d146100975780636c41cc93146100aa575b600080fd5b6100956100903660046107ec565b610129565b005b6100956100a5366004610874565b61019a565b6100bd6100b83660046108a4565b6101e8565b6040516100d09796959493929190610903565b60405180910390f35b6100e260015481565b6040519081526020016100d0565b6100956100fe3660046108a4565b61041d565b6100956101113660046108a4565b610492565b610095610124366004610964565b61050a565b6001805490600061013983610986565b909155505060015460009081526020819052604090208061015a8582610a36565b50600181016101698482610a36565b50600281016101788382610a36565b506000600582018190556006820155600701805460ff19166001179055505050565b6002546001600160a01b03163314806101bd57506003546001600160a01b031633145b6101c657600080fd5b600380546001600160a01b0319166001600160a01b0392909216919091179055565b600060608060606000806000808811801561020557506001548811155b61022a5760405162461bcd60e51b815260040161022190610af6565b60405180910390fd5b6001805460008a8152602081905260409020600581015460068201546007830154835494959394938501936002860193929160ff161590869061026c906109ad565b80601f0160208091040260200160405190810160405280929190818152602001828054610298906109ad565b80156102e55780601f106102ba576101008083540402835291602001916102e5565b820191906000526020600020905b8154815290600101906020018083116102c857829003601f168201915b505050505095508480546102f8906109ad565b80601f0160208091040260200160405190810160405280929190818152602001828054610324906109ad565b80156103715780601f1061034657610100808354040283529160200191610371565b820191906000526020600020905b81548152906001019060200180831161035457829003601f168201915b50505050509450838054610384906109ad565b80601f01602080910402602001604051908101604052809291908181526020018280546103b0906109ad565b80156103fd5780601f106103d2576101008083540402835291602001916103fd565b820191906000526020600020905b8154815290600101906020018083116103e057829003601f168201915b505050505093509650965096509650965096509650919395979092949650565b6002546001600160a01b031633148061044057506003546001600160a01b031633145b61044957600080fd5b60008111801561045b57506001548111155b6104775760405162461bcd60e51b815260040161022190610af6565b6000908152602081905260409020600701805460ff19169055565b6002546001600160a01b03163314806104b557506003546001600160a01b031633145b6104be57600080fd5b6000811180156104d057506001548111155b6104ec5760405162461bcd60e51b815260040161022190610af6565b6000908152602081905260409020600701805460ff19166001179055565b60008211801561051c57506001548211155b6105685760405162461bcd60e51b815260206004820152601760248201527f4c6520736f6e64616765206e27657869737465207061730000000000000000006044820152606401610221565b60008281526020819052604090206007015460ff166105c25760405162461bcd60e51b81526020600482015260166024820152754c6520736f6e6461676520657374207465726d696e6560501b6044820152606401610221565b60008281526020818152604080832033845260030190915290205460ff16156106395760405162461bcd60e51b815260206004820152602360248201527f566f7573206176657a2064656a6120766f74652064616e7320636520736f6e6460448201526261676560e81b6064820152608401610221565b80600114806106485750806002145b6106845760405162461bcd60e51b815260206004820152600d60248201526c566f746520696e76616c69646560981b6044820152606401610221565b806001036106d45760008281526020819052604081206005018054916106a983610986565b90915550506000828152602081815260408083203384526004019091529020805460ff191660011790555b806002036107215760008281526020819052604081206006018054916106f983610986565b90915550506000828152602081815260408083203384526004019091529020805460ff191690555b506000908152602081815260408083203384526003019091529020805460ff19166001179055565b634e487b7160e01b600052604160045260246000fd5b600082601f83011261077057600080fd5b813567ffffffffffffffff8082111561078b5761078b610749565b604051601f8301601f19908116603f011681019082821181831017156107b3576107b3610749565b816040528381528660208588010111156107cc57600080fd5b836020870160208301376000602085830101528094505050505092915050565b60008060006060848603121561080157600080fd5b833567ffffffffffffffff8082111561081957600080fd5b6108258783880161075f565b9450602086013591508082111561083b57600080fd5b6108478783880161075f565b9350604086013591508082111561085d57600080fd5b5061086a8682870161075f565b9150509250925092565b60006020828403121561088657600080fd5b81356001600160a01b038116811461089d57600080fd5b9392505050565b6000602082840312156108b657600080fd5b5035919050565b6000815180845260005b818110156108e3576020818501810151868301820152016108c7565b506000602082860101526020601f19601f83011685010191505092915050565b87815260e06020820152600061091c60e08301896108bd565b828103604084015261092e81896108bd565b9050828103606084015261094281886108bd565b6080840196909652505060a0810192909252151560c090910152949350505050565b6000806040838503121561097757600080fd5b50508035926020909101359150565b6000600182016109a657634e487b7160e01b600052601160045260246000fd5b5060010190565b600181811c908216806109c157607f821691505b6020821081036109e157634e487b7160e01b600052602260045260246000fd5b50919050565b601f821115610a3157600081815260208120601f850160051c81016020861015610a0e5750805b601f850160051c820191505b81811015610a2d57828155600101610a1a565b5050505b505050565b815167ffffffffffffffff811115610a5057610a50610749565b610a6481610a5e84546109ad565b846109e7565b602080601f831160018114610a995760008415610a815750858301515b600019600386901b1c1916600185901b178555610a2d565b600085815260208120601f198616915b82811015610ac857888601518255948401946001909101908401610aa9565b5085821015610ae65787850151600019600388901b60f8161c191681555b5050505050600190811b01905550565b60208082526012908201527114dbdb991859d9481a5b995e1a5cdd185b9d60721b60408201526060019056fea264697066735822122010be9ccce8dbff0997f5e8112ecec69a5d632857705ba1d6b3e8072efe99d3d364736f6c63430008150033",
    "linkReferences": {}
  },
  "methodIdentifiers": {
    "Sondage_count()": "6c76af35",
    "changeGod2(address)": "2d85780d",
    "creerSondage(string,string,string)": "29cd06f3",
    "rouvrirSondage(uint256)": "ce895a18",
    "sondageInfo(uint256)": "6c41cc93",
    "terminerSondage(uint256)": "6e7cd98e",
    "voter(uint256,uint256)": "d3856f3b"
  },
  "id": 15
}