{
  "abi": [
    {
      "inputs": [
        {
          "internalType": "uint256",
          "name": "_vote_deadline",
          "type": "uint256"
        },
        {
          "internalType": "string",
          "name": "_vote_name",
          "type": "string"
        },
        {
          "internalType": "string",
          "name": "_vote_desc",
          "type": "string"
        }
      ],
      "name": "Create_Poll",
      "outputs": [],
      "stateMutability": "nonpayable",
      "type": "function"
    },
    {
      "inputs": [
        {
          "internalType": "uint256",
          "name": "",
          "type": "uint256"
        }
      ],
      "name": "Polls",
      "outputs": [
        {
          "internalType": "uint256",
          "name": "vote_id",
          "type": "uint256"
        },
        {
          "internalType": "uint256",
          "name": "vote_deadline",
          "type": "uint256"
        },
        {
          "internalType": "string",
          "name": "vote_name",
          "type": "string"
        },
        {
          "internalType": "string",
          "name": "vote_desc",
          "type": "string"
        },
        {
          "internalType": "string",
          "name": "option1",
          "type": "string"
        },
        {
          "internalType": "string",
          "name": "option2",
          "type": "string"
        },
        {
          "internalType": "string",
          "name": "option3",
          "type": "string"
        },
        {
          "internalType": "string",
          "name": "option4",
          "type": "string"
        },
        {
          "internalType": "uint256",
          "name": "option1_value",
          "type": "uint256"
        },
        {
          "internalType": "uint256",
          "name": "option2_value",
          "type": "uint256"
        },
        {
          "internalType": "uint256",
          "name": "option3_value",
          "type": "uint256"
        },
        {
          "internalType": "uint256",
          "name": "option4_value",
          "type": "uint256"
        }
      ],
      "stateMutability": "view",
      "type": "function"
    },
    {
      "inputs": [],
      "name": "polls_couter",
      "outputs": [
        {
          "internalType": "uint256",
          "name": "",
          "type": "uint256"
        }
      ],
      "stateMutability": "view",
      "type": "function"
    }
  ],
  "bytecode": {
    "object": "0x6080604052600060015534801561001557600080fd5b506109b3806100256000396000f3fe608060405234801561001057600080fd5b50600436106100415760003560e01c806309aaf058146100465780635f9c22a41461007a578063fda63cd71461008f575b600080fd5b6100596100543660046105ea565b6100a6565b6040516100719c9b9a99989796959493929190610649565b60405180910390f35b61008d6100883660046107a0565b61042f565b005b61009860015481565b604051908152602001610071565b600060208190529081526040902080546001820154600283018054929391926100ce9061080d565b80601f01602080910402602001604051908101604052809291908181526020018280546100fa9061080d565b80156101475780601f1061011c57610100808354040283529160200191610147565b820191906000526020600020905b81548152906001019060200180831161012a57829003601f168201915b50505050509080600301805461015c9061080d565b80601f01602080910402602001604051908101604052809291908181526020018280546101889061080d565b80156101d55780601f106101aa576101008083540402835291602001916101d5565b820191906000526020600020905b8154815290600101906020018083116101b857829003601f168201915b5050505050908060040180546101ea9061080d565b80601f01602080910402602001604051908101604052809291908181526020018280546102169061080d565b80156102635780601f1061023857610100808354040283529160200191610263565b820191906000526020600020905b81548152906001019060200180831161024657829003601f168201915b5050505050908060050180546102789061080d565b80601f01602080910402602001604051908101604052809291908181526020018280546102a49061080d565b80156102f15780601f106102c6576101008083540402835291602001916102f1565b820191906000526020600020905b8154815290600101906020018083116102d457829003601f168201915b5050505050908060060180546103069061080d565b80601f01602080910402602001604051908101604052809291908181526020018280546103329061080d565b801561037f5780601f106103545761010080835404028352916020019161037f565b820191906000526020600020905b81548152906001019060200180831161036257829003601f168201915b5050505050908060070180546103949061080d565b80601f01602080910402602001604051908101604052809291908181526020018280546103c09061080d565b801561040d5780601f106103e25761010080835404028352916020019161040d565b820191906000526020600020905b8154815290600101906020018083116103f057829003601f168201915b50505050509080600801549080600901549080600a01549080600b015490508c565b600060405180610180016040528060016000815461044c90610847565b9190508190558152602001858152602001848152602001838152602001604051806040016040528060028152602001613ab760f11b8152508152602001604051806040016040528060048152602001630c8caeaf60e31b81525081526020016040518060400160405280600581526020016474726f697360d81b81525081526020016040518060400160405280600681526020016571756174726560d01b8152508152602001600081526020016000815260200160008152602001600081525090508060008060015481526020019081526020016000206000820151816000015560208201518160010155604082015181600201908161054c91906108bd565b506060820151600382019061056190826108bd565b506080820151600482019061057690826108bd565b5060a0820151600582019061058b90826108bd565b5060c082015160068201906105a090826108bd565b5060e082015160078201906105b590826108bd565b5061010082015160088201556101208201516009820155610140820151600a82015561016090910151600b9091015550505050565b6000602082840312156105fc57600080fd5b5035919050565b6000815180845260005b818110156106295760208185018101518683018201520161060d565b506000602082860101526020601f19601f83011685010191505092915050565b60006101808e83528d60208401528060408401526106698184018e610603565b9050828103606084015261067d818d610603565b90508281036080840152610691818c610603565b905082810360a08401526106a5818b610603565b905082810360c08401526106b9818a610603565b905082810360e08401526106cd8189610603565b915050856101008301528461012083015283610140830152826101608301529d9c50505050505050505050505050565b634e487b7160e01b600052604160045260246000fd5b600082601f83011261072457600080fd5b813567ffffffffffffffff8082111561073f5761073f6106fd565b604051601f8301601f19908116603f01168101908282118183101715610767576107676106fd565b8160405283815286602085880101111561078057600080fd5b836020870160208301376000602085830101528094505050505092915050565b6000806000606084860312156107b557600080fd5b83359250602084013567ffffffffffffffff808211156107d457600080fd5b6107e087838801610713565b935060408601359150808211156107f657600080fd5b5061080386828701610713565b9150509250925092565b600181811c9082168061082157607f821691505b60208210810361084157634e487b7160e01b600052602260045260246000fd5b50919050565b60006001820161086757634e487b7160e01b600052601160045260246000fd5b5060010190565b601f8211156108b857600081815260208120601f850160051c810160208610156108955750805b601f850160051c820191505b818110156108b4578281556001016108a1565b5050505b505050565b815167ffffffffffffffff8111156108d7576108d76106fd565b6108eb816108e5845461080d565b8461086e565b602080601f83116001811461092057600084156109085750858301515b600019600386901b1c1916600185901b1785556108b4565b600085815260208120601f198616915b8281101561094f57888601518255948401946001909101908401610930565b508582101561096d5787850151600019600388901b60f8161c191681555b5050505050600190811b0190555056fea2646970667358221220cbb4d68f6721f6b0caea820b0f58aa604c57845559fc2a1a0e87b671a3fd7e3664736f6c63430008150033",
    "linkReferences": {}
  },
  "methodIdentifiers": {
    "Create_Poll(uint256,string,string)": "5f9c22a4",
    "Polls(uint256)": "09aaf058",
    "polls_couter()": "fda63cd7"
  },
  "id": 21
}